{
  "_format": "hh-sol-artifact-1",
  "contractName": "RandomWords",
  "sourceName": "contracts/EpicCarpinchos.sol",
  "abi": [
    {
      "inputs": [],
      "stateMutability": "nonpayable",
      "type": "constructor"
    },
    {
      "anonymous": false,
      "inputs": [
        {
          "indexed": true,
          "internalType": "address",
          "name": "owner",
          "type": "address"
        },
        {
          "indexed": true,
          "internalType": "address",
          "name": "approved",
          "type": "address"
        },
        {
          "indexed": true,
          "internalType": "uint256",
          "name": "tokenId",
          "type": "uint256"
        }
      ],
      "name": "Approval",
      "type": "event"
    },
    {
      "anonymous": false,
      "inputs": [
        {
          "indexed": true,
          "internalType": "address",
          "name": "owner",
          "type": "address"
        },
        {
          "indexed": true,
          "internalType": "address",
          "name": "operator",
          "type": "address"
        },
        {
          "indexed": false,
          "internalType": "bool",
          "name": "approved",
          "type": "bool"
        }
      ],
      "name": "ApprovalForAll",
      "type": "event"
    },
    {
      "anonymous": false,
      "inputs": [
        {
          "indexed": false,
          "internalType": "address",
          "name": "sender",
          "type": "address"
        },
        {
          "indexed": false,
          "internalType": "uint256",
          "name": "tokenId",
          "type": "uint256"
        }
      ],
      "name": "NewRandomWordMinted",
      "type": "event"
    },
    {
      "anonymous": false,
      "inputs": [
        {
          "indexed": true,
          "internalType": "address",
          "name": "from",
          "type": "address"
        },
        {
          "indexed": true,
          "internalType": "address",
          "name": "to",
          "type": "address"
        },
        {
          "indexed": true,
          "internalType": "uint256",
          "name": "tokenId",
          "type": "uint256"
        }
      ],
      "name": "Transfer",
      "type": "event"
    },
    {
      "inputs": [],
      "name": "NFTFactory",
      "outputs": [],
      "stateMutability": "nonpayable",
      "type": "function"
    },
    {
      "inputs": [
        {
          "internalType": "address",
          "name": "to",
          "type": "address"
        },
        {
          "internalType": "uint256",
          "name": "tokenId",
          "type": "uint256"
        }
      ],
      "name": "approve",
      "outputs": [],
      "stateMutability": "nonpayable",
      "type": "function"
    },
    {
      "inputs": [
        {
          "internalType": "address",
          "name": "owner",
          "type": "address"
        }
      ],
      "name": "balanceOf",
      "outputs": [
        {
          "internalType": "uint256",
          "name": "",
          "type": "uint256"
        }
      ],
      "stateMutability": "view",
      "type": "function"
    },
    {
      "inputs": [
        {
          "internalType": "uint256",
          "name": "tokenId",
          "type": "uint256"
        }
      ],
      "name": "getApproved",
      "outputs": [
        {
          "internalType": "address",
          "name": "",
          "type": "address"
        }
      ],
      "stateMutability": "view",
      "type": "function"
    },
    {
      "inputs": [
        {
          "internalType": "address",
          "name": "owner",
          "type": "address"
        },
        {
          "internalType": "address",
          "name": "operator",
          "type": "address"
        }
      ],
      "name": "isApprovedForAll",
      "outputs": [
        {
          "internalType": "bool",
          "name": "",
          "type": "bool"
        }
      ],
      "stateMutability": "view",
      "type": "function"
    },
    {
      "inputs": [],
      "name": "name",
      "outputs": [
        {
          "internalType": "string",
          "name": "",
          "type": "string"
        }
      ],
      "stateMutability": "view",
      "type": "function"
    },
    {
      "inputs": [
        {
          "internalType": "uint256",
          "name": "tokenId",
          "type": "uint256"
        }
      ],
      "name": "ownerOf",
      "outputs": [
        {
          "internalType": "address",
          "name": "",
          "type": "address"
        }
      ],
      "stateMutability": "view",
      "type": "function"
    },
    {
      "inputs": [
        {
          "internalType": "uint256",
          "name": "tokenId",
          "type": "uint256"
        }
      ],
      "name": "pickRandomColor",
      "outputs": [
        {
          "internalType": "string",
          "name": "",
          "type": "string"
        }
      ],
      "stateMutability": "view",
      "type": "function"
    },
    {
      "inputs": [
        {
          "internalType": "uint256",
          "name": "tokenId",
          "type": "uint256"
        }
      ],
      "name": "pickRandomFirstWord",
      "outputs": [
        {
          "internalType": "string",
          "name": "",
          "type": "string"
        }
      ],
      "stateMutability": "view",
      "type": "function"
    },
    {
      "inputs": [
        {
          "internalType": "uint256",
          "name": "tokenId",
          "type": "uint256"
        }
      ],
      "name": "pickRandomSecondWord",
      "outputs": [
        {
          "internalType": "string",
          "name": "",
          "type": "string"
        }
      ],
      "stateMutability": "view",
      "type": "function"
    },
    {
      "inputs": [
        {
          "internalType": "uint256",
          "name": "tokenId",
          "type": "uint256"
        }
      ],
      "name": "pickRandomThirdWord",
      "outputs": [
        {
          "internalType": "string",
          "name": "",
          "type": "string"
        }
      ],
      "stateMutability": "view",
      "type": "function"
    },
    {
      "inputs": [
        {
          "internalType": "address",
          "name": "from",
          "type": "address"
        },
        {
          "internalType": "address",
          "name": "to",
          "type": "address"
        },
        {
          "internalType": "uint256",
          "name": "tokenId",
          "type": "uint256"
        }
      ],
      "name": "safeTransferFrom",
      "outputs": [],
      "stateMutability": "nonpayable",
      "type": "function"
    },
    {
      "inputs": [
        {
          "internalType": "address",
          "name": "from",
          "type": "address"
        },
        {
          "internalType": "address",
          "name": "to",
          "type": "address"
        },
        {
          "internalType": "uint256",
          "name": "tokenId",
          "type": "uint256"
        },
        {
          "internalType": "bytes",
          "name": "_data",
          "type": "bytes"
        }
      ],
      "name": "safeTransferFrom",
      "outputs": [],
      "stateMutability": "nonpayable",
      "type": "function"
    },
    {
      "inputs": [
        {
          "internalType": "address",
          "name": "operator",
          "type": "address"
        },
        {
          "internalType": "bool",
          "name": "approved",
          "type": "bool"
        }
      ],
      "name": "setApprovalForAll",
      "outputs": [],
      "stateMutability": "nonpayable",
      "type": "function"
    },
    {
      "inputs": [
        {
          "internalType": "bytes4",
          "name": "interfaceId",
          "type": "bytes4"
        }
      ],
      "name": "supportsInterface",
      "outputs": [
        {
          "internalType": "bool",
          "name": "",
          "type": "bool"
        }
      ],
      "stateMutability": "view",
      "type": "function"
    },
    {
      "inputs": [],
      "name": "symbol",
      "outputs": [
        {
          "internalType": "string",
          "name": "",
          "type": "string"
        }
      ],
      "stateMutability": "view",
      "type": "function"
    },
    {
      "inputs": [
        {
          "internalType": "uint256",
          "name": "tokenId",
          "type": "uint256"
        }
      ],
      "name": "tokenURI",
      "outputs": [
        {
          "internalType": "string",
          "name": "",
          "type": "string"
        }
      ],
      "stateMutability": "view",
      "type": "function"
    },
    {
      "inputs": [
        {
          "internalType": "address",
          "name": "from",
          "type": "address"
        },
        {
          "internalType": "address",
          "name": "to",
          "type": "address"
        },
        {
          "internalType": "uint256",
          "name": "tokenId",
          "type": "uint256"
        }
      ],
      "name": "transferFrom",
      "outputs": [],
      "stateMutability": "nonpayable",
      "type": "function"
    }
  ],
  "bytecode": "0x608060405260405180610100016040528060d381526020016200474560d3913960089080519060200190620000369291906200082c565b50604051806080016040528060568152602001620048186056913960099080519060200190620000689291906200082c565b506040518060c001604052806040518060400160405280600981526020017f42656175746966756c000000000000000000000000000000000000000000000081525081526020016040518060400160405280600481526020017f55676c790000000000000000000000000000000000000000000000000000000081525081526020016040518060400160405280600481526020017f54616c6c0000000000000000000000000000000000000000000000000000000081525081526020016040518060400160405280600481526020017f4d696e690000000000000000000000000000000000000000000000000000000081525081526020016040518060400160405280600981526020017f457870656e73697665000000000000000000000000000000000000000000000081525081526020016040518060400160405280600581526020017f4368656170000000000000000000000000000000000000000000000000000000815250815250600a906006620001e6929190620008bd565b506040518060c001604052806040518060400160405280600381526020017f446f67000000000000000000000000000000000000000000000000000000000081525081526020016040518060400160405280600581526020017f48756d616e00000000000000000000000000000000000000000000000000000081525081526020016040518060400160405280600881526020017f436f6d707574657200000000000000000000000000000000000000000000000081525081526020016040518060400160405280600881526020017f4b6579626f61726400000000000000000000000000000000000000000000000081525081526020016040518060400160405280600481526020017f4d6174650000000000000000000000000000000000000000000000000000000081525081526020016040518060400160405280600381526020017f4361740000000000000000000000000000000000000000000000000000000000815250815250600b90600662000364929190620008bd565b506040518060c001604052806040518060400160405280600381526020017f52756e000000000000000000000000000000000000000000000000000000000081525081526020016040518060400160405280600581526020017f577269746500000000000000000000000000000000000000000000000000000081525081526020016040518060400160405280600481526020017f446561640000000000000000000000000000000000000000000000000000000081525081526020016040518060400160405280600481526020017f4a756d700000000000000000000000000000000000000000000000000000000081525081526020016040518060400160405280600681526020017f426f756e6365000000000000000000000000000000000000000000000000000081525081526020016040518060400160405280600381526020017f466c790000000000000000000000000000000000000000000000000000000000815250815250600c906006620004e2929190620008bd565b506040518060c001604052806040518060400160405280600381526020017f726564000000000000000000000000000000000000000000000000000000000081525081526020016040518060400160405280600781526020017f233038433241380000000000000000000000000000000000000000000000000081525081526020016040518060400160405280600581526020017f626c61636b00000000000000000000000000000000000000000000000000000081525081526020016040518060400160405280600681526020017f79656c6c6f77000000000000000000000000000000000000000000000000000081525081526020016040518060400160405280600481526020017f626c75650000000000000000000000000000000000000000000000000000000081525081526020016040518060400160405280600581526020017f677265656e000000000000000000000000000000000000000000000000000000815250815250600d90600662000660929190620008bd565b503480156200066e57600080fd5b506040518060400160405280600c81526020017f52616e646f6d20576f72647300000000000000000000000000000000000000008152506040518060400160405280600881526020017f524e444d575244530000000000000000000000000000000000000000000000008152508160009080519060200190620006f39291906200082c565b5080600190805190602001906200070c9291906200082c565b5050506200075a6040518060400160405280601e81526020017f54686973206973206d79204e465420636f6e74726163742e20576f61682100008152506200076060201b620012491760201c565b62000ade565b6200080081604051602401620007779190620009f2565b6040516020818303038152906040527f41304fac000000000000000000000000000000000000000000000000000000007bffffffffffffffffffffffffffffffffffffffffffffffffffffffff19166020820180517bffffffffffffffffffffffffffffffffffffffffffffffffffffffff83818316178352505050506200080360201b60201c565b50565b60008151905060006a636f6e736f6c652e6c6f679050602083016000808483855afa5050505050565b8280546200083a9062000a68565b90600052602060002090601f0160209004810192826200085e5760008555620008aa565b82601f106200087957805160ff1916838001178555620008aa565b82800160010185558215620008aa579182015b82811115620008a95782518255916020019190600101906200088c565b5b509050620008b9919062000924565b5090565b82805482825590600052602060002090810192821562000911579160200282015b8281111562000910578251829080519060200190620008ff9291906200082c565b5091602001919060010190620008de565b5b50905062000920919062000943565b5090565b5b808211156200093f57600081600090555060010162000925565b5090565b5b808211156200096757600081816200095d91906200096b565b5060010162000944565b5090565b508054620009799062000a68565b6000825580601f106200098d5750620009ae565b601f016020900490600052602060002090810190620009ad919062000924565b5b50565b6000620009be8262000a16565b620009ca818562000a21565b9350620009dc81856020860162000a32565b620009e78162000acd565b840191505092915050565b6000602082019050818103600083015262000a0e8184620009b1565b905092915050565b600081519050919050565b600082825260208201905092915050565b60005b8381101562000a5257808201518184015260208101905062000a35565b8381111562000a62576000848401525b50505050565b6000600282049050600182168062000a8157607f821691505b6020821081141562000a985762000a9762000a9e565b5b50919050565b7f4e487b7100000000000000000000000000000000000000000000000000000000600052602260045260246000fd5b6000601f19601f8301169050919050565b613c578062000aee6000396000f3fe608060405234801561001057600080fd5b50600436106101165760003560e01c80636352211e116100a2578063b187301f11610071578063b187301f146102f1578063b88d4fde14610321578063c575757a1461033d578063c87b56dd1461036d578063e985e9c51461039d57610116565b80636352211e1461025757806370a082311461028757806395d89b41146102b7578063a22cb465146102d557610116565b806323b872dd116100e957806323b872dd146101b55780632de38d68146101d157806342842e0e14610201578063514dc8c61461021d5780635e5ceb1d1461024d57610116565b806301ffc9a71461011b57806306fdde031461014b578063081812fc14610169578063095ea7b314610199575b600080fd5b61013560048036038101906101309190612649565b6103cd565b6040516101429190612df7565b60405180910390f35b6101536104af565b6040516101609190612e12565b60405180910390f35b610183600480360381019061017e919061269b565b610541565b6040516101909190612d67565b60405180910390f35b6101b360048036038101906101ae919061260d565b6105c6565b005b6101cf60048036038101906101ca9190612507565b6106de565b005b6101eb60048036038101906101e6919061269b565b61073e565b6040516101f89190612e12565b60405180910390f35b61021b60048036038101906102169190612507565b61085c565b005b6102376004803603810190610232919061269b565b61087c565b6040516102449190612e12565b60405180910390f35b61025561099a565b005b610271600480360381019061026c919061269b565b610bb3565b60405161027e9190612d67565b60405180910390f35b6102a1600480360381019061029c91906124a2565b610c65565b6040516102ae9190613072565b60405180910390f35b6102bf610d1d565b6040516102cc9190612e12565b60405180910390f35b6102ef60048036038101906102ea91906125d1565b610daf565b005b61030b6004803603810190610306919061269b565b610dc5565b6040516103189190612e12565b60405180910390f35b61033b60048036038101906103369190612556565b610ee3565b005b6103576004803603810190610352919061269b565b610f45565b6040516103649190612e12565b60405180910390f35b6103876004803603810190610382919061269b565b611063565b6040516103949190612e12565b60405180910390f35b6103b760048036038101906103b291906124cb565b6111b5565b6040516103c49190612df7565b60405180910390f35b60007f80ac58cd000000000000000000000000000000000000000000000000000000007bffffffffffffffffffffffffffffffffffffffffffffffffffffffff1916827bffffffffffffffffffffffffffffffffffffffffffffffffffffffff1916148061049857507f5b5e139f000000000000000000000000000000000000000000000000000000007bffffffffffffffffffffffffffffffffffffffffffffffffffffffff1916827bffffffffffffffffffffffffffffffffffffffffffffffffffffffff1916145b806104a857506104a7826112e2565b5b9050919050565b6060600080546104be90613306565b80601f01602080910402602001604051908101604052809291908181526020018280546104ea90613306565b80156105375780601f1061050c57610100808354040283529160200191610537565b820191906000526020600020905b81548152906001019060200180831161051a57829003601f168201915b5050505050905090565b600061054c8261134c565b61058b576040517f08c379a000000000000000000000000000000000000000000000000000000000815260040161058290612fd2565b60405180910390fd5b6004600083815260200190815260200160002060009054906101000a900473ffffffffffffffffffffffffffffffffffffffff169050919050565b60006105d182610bb3565b90508073ffffffffffffffffffffffffffffffffffffffff168373ffffffffffffffffffffffffffffffffffffffff161415610642576040517f08c379a000000000000000000000000000000000000000000000000000000000815260040161063990613032565b60405180910390fd5b8073ffffffffffffffffffffffffffffffffffffffff166106616113b8565b73ffffffffffffffffffffffffffffffffffffffff161480610690575061068f8161068a6113b8565b6111b5565b5b6106cf576040517f08c379a00000000000000000000000000000000000000000000000000000000081526004016106c690612f12565b60405180910390fd5b6106d983836113c0565b505050565b6106ef6106e96113b8565b82611479565b61072e576040517f08c379a000000000000000000000000000000000000000000000000000000000815260040161072590613052565b60405180910390fd5b610739838383611557565b505050565b6060600061077261074e846117b3565b60405160200161075e9190612d01565b604051602081830303815290604052611960565b9050600a805490508161078591906133b2565b9050600a81815481106107c1577f4e487b7100000000000000000000000000000000000000000000000000000000600052603260045260246000fd5b9060005260206000200180546107d690613306565b80601f016020809104026020016040519081016040528092919081815260200182805461080290613306565b801561084f5780601f106108245761010080835404028352916020019161084f565b820191906000526020600020905b81548152906001019060200180831161083257829003601f168201915b5050505050915050919050565b61087783838360405180602001604052806000815250610ee3565b505050565b606060006108b061088c846117b3565b60405160200161089c9190612d45565b604051602081830303815290604052611960565b9050600d80549050816108c391906133b2565b9050600d81815481106108ff577f4e487b7100000000000000000000000000000000000000000000000000000000600052603260045260246000fd5b90600052602060002001805461091490613306565b80601f016020809104026020016040519081016040528092919081815260200182805461094090613306565b801561098d5780601f106109625761010080835404028352916020019161098d565b820191906000526020600020905b81548152906001019060200180831161097057829003601f168201915b5050505050915050919050565b60006109a66007611993565b905060006109b38261073e565b905060006109c083610dc5565b905060006109cd84610f45565b905060008383836040516020016109e693929190612bdc565b60405160208183030381529060405290506000610a028661087c565b90506000600882600985604051602001610a1f9493929190612c0d565b60405160208183030381529060405290506000610a6484610a3f846119a1565b604051602001610a50929190612cbc565b6040516020818303038152906040526119a1565b9050600081604051602001610a799190612d23565b6040516020818303038152906040529050610ac86040518060400160405280601581526020017f0a2d2d2d2d2d2d2d2d2d2d2d2d2d2d2d2d2d2d2d2d0000000000000000000000815250611249565b610af081604051602001610adc9190612c56565b604051602081830303815290604052611249565b610b2e6040518060400160405280601581526020017f2d2d2d2d2d2d2d2d2d2d2d2d2d2d2d2d2d2d2d2d0a0000000000000000000000815250611249565b610b38338a611b5f565b610b428982611b7d565b610b4c6007611bf1565b610b6f604051806060016040528060258152602001613bbd602591398a33611c07565b7f33d6524cf03d1027cc2c1c1cecdf2cea0ac2d743bf59a604d792bddb428eade7338a604051610ba0929190612dce565b60405180910390a1505050505050505050565b6000806002600084815260200190815260200160002060009054906101000a900473ffffffffffffffffffffffffffffffffffffffff169050600073ffffffffffffffffffffffffffffffffffffffff168173ffffffffffffffffffffffffffffffffffffffff161415610c5c576040517f08c379a0000000000000000000000000000000000000000000000000000000008152600401610c5390612f52565b60405180910390fd5b80915050919050565b60008073ffffffffffffffffffffffffffffffffffffffff168273ffffffffffffffffffffffffffffffffffffffff161415610cd6576040517f08c379a0000000000000000000000000000000000000000000000000000000008152600401610ccd90612f32565b60405180910390fd5b600360008373ffffffffffffffffffffffffffffffffffffffff1673ffffffffffffffffffffffffffffffffffffffff168152602001908152602001600020549050919050565b606060018054610d2c90613306565b80601f0160208091040260200160405190810160405280929190818152602001828054610d5890613306565b8015610da55780601f10610d7a57610100808354040283529160200191610da5565b820191906000526020600020905b815481529060010190602001808311610d8857829003601f168201915b5050505050905090565b610dc1610dba6113b8565b8383611ca6565b5050565b60606000610df9610dd5846117b3565b604051602001610de59190612c9a565b604051602081830303815290604052611960565b9050600b8054905081610e0c91906133b2565b9050600b8181548110610e48577f4e487b7100000000000000000000000000000000000000000000000000000000600052603260045260246000fd5b906000526020600020018054610e5d90613306565b80601f0160208091040260200160405190810160405280929190818152602001828054610e8990613306565b8015610ed65780601f10610eab57610100808354040283529160200191610ed6565b820191906000526020600020905b815481529060010190602001808311610eb957829003601f168201915b5050505050915050919050565b610ef4610eee6113b8565b83611479565b610f33576040517f08c379a0000000000000000000000000000000000000000000000000000000008152600401610f2a90613052565b60405180910390fd5b610f3f84848484611e13565b50505050565b60606000610f79610f55846117b3565b604051602001610f659190612c78565b604051602081830303815290604052611960565b9050600c8054905081610f8c91906133b2565b9050600c8181548110610fc8577f4e487b7100000000000000000000000000000000000000000000000000000000600052603260045260246000fd5b906000526020600020018054610fdd90613306565b80601f016020809104026020016040519081016040528092919081815260200182805461100990613306565b80156110565780601f1061102b57610100808354040283529160200191611056565b820191906000526020600020905b81548152906001019060200180831161103957829003601f168201915b5050505050915050919050565b606061106e8261134c565b6110ad576040517f08c379a00000000000000000000000000000000000000000000000000000000081526004016110a490612fb2565b60405180910390fd5b60006006600084815260200190815260200160002080546110cd90613306565b80601f01602080910402602001604051908101604052809291908181526020018280546110f990613306565b80156111465780601f1061111b57610100808354040283529160200191611146565b820191906000526020600020905b81548152906001019060200180831161112957829003601f168201915b505050505090506000611157611e6f565b905060008151141561116d5781925050506111b0565b6000825111156111a257808260405160200161118a929190612bb8565b604051602081830303815290604052925050506111b0565b6111ab84611e86565b925050505b919050565b6000600560008473ffffffffffffffffffffffffffffffffffffffff1673ffffffffffffffffffffffffffffffffffffffff16815260200190815260200160002060008373ffffffffffffffffffffffffffffffffffffffff1673ffffffffffffffffffffffffffffffffffffffff16815260200190815260200160002060009054906101000a900460ff16905092915050565b6112df8160405160240161125d9190612e12565b6040516020818303038152906040527f41304fac000000000000000000000000000000000000000000000000000000007bffffffffffffffffffffffffffffffffffffffffffffffffffffffff19166020820180517bffffffffffffffffffffffffffffffffffffffffffffffffffffffff8381831617835250505050611f2d565b50565b60007f01ffc9a7000000000000000000000000000000000000000000000000000000007bffffffffffffffffffffffffffffffffffffffffffffffffffffffff1916827bffffffffffffffffffffffffffffffffffffffffffffffffffffffff1916149050919050565b60008073ffffffffffffffffffffffffffffffffffffffff166002600084815260200190815260200160002060009054906101000a900473ffffffffffffffffffffffffffffffffffffffff1673ffffffffffffffffffffffffffffffffffffffff1614159050919050565b600033905090565b816004600083815260200190815260200160002060006101000a81548173ffffffffffffffffffffffffffffffffffffffff021916908373ffffffffffffffffffffffffffffffffffffffff160217905550808273ffffffffffffffffffffffffffffffffffffffff1661143383610bb3565b73ffffffffffffffffffffffffffffffffffffffff167f8c5be1e5ebec7d5bd14f71427d1e84f3dd0314c0f7b2291e5b200ac8c7c3b92560405160405180910390a45050565b60006114848261134c565b6114c3576040517f08c379a00000000000000000000000000000000000000000000000000000000081526004016114ba90612ef2565b60405180910390fd5b60006114ce83610bb3565b90508073ffffffffffffffffffffffffffffffffffffffff168473ffffffffffffffffffffffffffffffffffffffff16148061153d57508373ffffffffffffffffffffffffffffffffffffffff1661152584610541565b73ffffffffffffffffffffffffffffffffffffffff16145b8061154e575061154d81856111b5565b5b91505092915050565b8273ffffffffffffffffffffffffffffffffffffffff1661157782610bb3565b73ffffffffffffffffffffffffffffffffffffffff16146115cd576040517f08c379a00000000000000000000000000000000000000000000000000000000081526004016115c490612ff2565b60405180910390fd5b600073ffffffffffffffffffffffffffffffffffffffff168273ffffffffffffffffffffffffffffffffffffffff16141561163d576040517f08c379a000000000000000000000000000000000000000000000000000000000815260040161163490612eb2565b60405180910390fd5b611648838383611f56565b6116536000826113c0565b6001600360008573ffffffffffffffffffffffffffffffffffffffff1673ffffffffffffffffffffffffffffffffffffffff16815260200190815260200160002060008282546116a3919061321c565b925050819055506001600360008473ffffffffffffffffffffffffffffffffffffffff1673ffffffffffffffffffffffffffffffffffffffff16815260200190815260200160002060008282546116fa919061313b565b92505081905550816002600083815260200190815260200160002060006101000a81548173ffffffffffffffffffffffffffffffffffffffff021916908373ffffffffffffffffffffffffffffffffffffffff160217905550808273ffffffffffffffffffffffffffffffffffffffff168473ffffffffffffffffffffffffffffffffffffffff167fddf252ad1be2c89b69c2b068fc378daa952ba7f163c4a11628f55a4df523b3ef60405160405180910390a4505050565b606060008214156117fb576040518060400160405280600181526020017f3000000000000000000000000000000000000000000000000000000000000000815250905061195b565b600082905060005b6000821461182d57808061181690613369565b915050600a826118269190613191565b9150611803565b60008167ffffffffffffffff81111561186f577f4e487b7100000000000000000000000000000000000000000000000000000000600052604160045260246000fd5b6040519080825280601f01601f1916602001820160405280156118a15781602001600182028036833780820191505090505b5090505b60008514611954576001826118ba919061321c565b9150600a856118c991906133b2565b60306118d5919061313b565b60f81b818381518110611911577f4e487b7100000000000000000000000000000000000000000000000000000000600052603260045260246000fd5b60200101907effffffffffffffffffffffffffffffffffffffffffffffffffffffffffffff1916908160001a905350600a8561194d9190613191565b94506118a5565b8093505050505b919050565b6000816040516020016119739190612ba1565b6040516020818303038152906040528051906020012060001c9050919050565b600081600001549050919050565b606060008251905060008114156119ca5760405180602001604052806000815250915050611b5a565b600060036002836119db919061313b565b6119e59190613191565b60046119f191906131c2565b90506000602082611a02919061313b565b67ffffffffffffffff811115611a41577f4e487b7100000000000000000000000000000000000000000000000000000000600052604160045260246000fd5b6040519080825280601f01601f191660200182016040528015611a735781602001600182028036833780820191505090505b5090506000604051806060016040528060408152602001613be2604091399050600181016020830160005b86811015611b175760038101905062ffffff818a015116603f8160121c168401518060081b905060ff603f83600c1c1686015116810190508060081b905060ff603f8360061c1686015116810190508060081b905060ff603f831686015116810190508060e01b90508084526004840193505050611a9e565b506003860660018114611b315760028114611b4157611b4c565b613d3d60f01b6002830352611b4c565b603d60f81b60018303525b508484525050819450505050505b919050565b611b79828260405180602001604052806000815250611f5b565b5050565b611b868261134c565b611bc5576040517f08c379a0000000000000000000000000000000000000000000000000000000008152600401611bbc90612f72565b60405180910390fd5b80600660008481526020019081526020016000209080519060200190611bec92919061232e565b505050565b6001816000016000828254019250508190555050565b611ca1838383604051602401611c1f93929190612e34565b6040516020818303038152906040527fe3849f79000000000000000000000000000000000000000000000000000000007bffffffffffffffffffffffffffffffffffffffffffffffffffffffff19166020820180517bffffffffffffffffffffffffffffffffffffffffffffffffffffffff8381831617835250505050611f2d565b505050565b8173ffffffffffffffffffffffffffffffffffffffff168373ffffffffffffffffffffffffffffffffffffffff161415611d15576040517f08c379a0000000000000000000000000000000000000000000000000000000008152600401611d0c90612ed2565b60405180910390fd5b80600560008573ffffffffffffffffffffffffffffffffffffffff1673ffffffffffffffffffffffffffffffffffffffff16815260200190815260200160002060008473ffffffffffffffffffffffffffffffffffffffff1673ffffffffffffffffffffffffffffffffffffffff16815260200190815260200160002060006101000a81548160ff0219169083151502179055508173ffffffffffffffffffffffffffffffffffffffff168373ffffffffffffffffffffffffffffffffffffffff167f17307eab39ab6107e8899845ad3d59bd9653f200f220920489ca2b5937696c3183604051611e069190612df7565b60405180910390a3505050565b611e1e848484611557565b611e2a84848484611fb6565b611e69576040517f08c379a0000000000000000000000000000000000000000000000000000000008152600401611e6090612e72565b60405180910390fd5b50505050565b606060405180602001604052806000815250905090565b6060611e918261134c565b611ed0576040517f08c379a0000000000000000000000000000000000000000000000000000000008152600401611ec790613012565b60405180910390fd5b6000611eda611e6f565b90506000815111611efa5760405180602001604052806000815250611f25565b80611f04846117b3565b604051602001611f15929190612bb8565b6040516020818303038152906040525b915050919050565b60008151905060006a636f6e736f6c652e6c6f679050602083016000808483855afa5050505050565b505050565b611f65838361214d565b611f726000848484611fb6565b611fb1576040517f08c379a0000000000000000000000000000000000000000000000000000000008152600401611fa890612e72565b60405180910390fd5b505050565b6000611fd78473ffffffffffffffffffffffffffffffffffffffff1661231b565b15612140578373ffffffffffffffffffffffffffffffffffffffff1663150b7a026120006113b8565b8786866040518563ffffffff1660e01b81526004016120229493929190612d82565b602060405180830381600087803b15801561203c57600080fd5b505af192505050801561206d57506040513d601f19601f8201168201806040525081019061206a9190612672565b60015b6120f0573d806000811461209d576040519150601f19603f3d011682016040523d82523d6000602084013e6120a2565b606091505b506000815114156120e8576040517f08c379a00000000000000000000000000000000000000000000000000000000081526004016120df90612e72565b60405180910390fd5b805181602001fd5b63150b7a0260e01b7bffffffffffffffffffffffffffffffffffffffffffffffffffffffff1916817bffffffffffffffffffffffffffffffffffffffffffffffffffffffff191614915050612145565b600190505b949350505050565b600073ffffffffffffffffffffffffffffffffffffffff168273ffffffffffffffffffffffffffffffffffffffff1614156121bd576040517f08c379a00000000000000000000000000000000000000000000000000000000081526004016121b490612f92565b60405180910390fd5b6121c68161134c565b15612206576040517f08c379a00000000000000000000000000000000000000000000000000000000081526004016121fd90612e92565b60405180910390fd5b61221260008383611f56565b6001600360008473ffffffffffffffffffffffffffffffffffffffff1673ffffffffffffffffffffffffffffffffffffffff1681526020019081526020016000206000828254612262919061313b565b92505081905550816002600083815260200190815260200160002060006101000a81548173ffffffffffffffffffffffffffffffffffffffff021916908373ffffffffffffffffffffffffffffffffffffffff160217905550808273ffffffffffffffffffffffffffffffffffffffff16600073ffffffffffffffffffffffffffffffffffffffff167fddf252ad1be2c89b69c2b068fc378daa952ba7f163c4a11628f55a4df523b3ef60405160405180910390a45050565b600080823b905060008111915050919050565b82805461233a90613306565b90600052602060002090601f01602090048101928261235c57600085556123a3565b82601f1061237557805160ff19168380011785556123a3565b828001600101855582156123a3579182015b828111156123a2578251825591602001919060010190612387565b5b5090506123b091906123b4565b5090565b5b808211156123cd5760008160009055506001016123b5565b5090565b60006123e46123df846130b2565b61308d565b9050828152602081018484840111156123fc57600080fd5b6124078482856132c4565b509392505050565b60008135905061241e81613b60565b92915050565b60008135905061243381613b77565b92915050565b60008135905061244881613b8e565b92915050565b60008151905061245d81613b8e565b92915050565b600082601f83011261247457600080fd5b81356124848482602086016123d1565b91505092915050565b60008135905061249c81613ba5565b92915050565b6000602082840312156124b457600080fd5b60006124c28482850161240f565b91505092915050565b600080604083850312156124de57600080fd5b60006124ec8582860161240f565b92505060206124fd8582860161240f565b9150509250929050565b60008060006060848603121561251c57600080fd5b600061252a8682870161240f565b935050602061253b8682870161240f565b925050604061254c8682870161248d565b9150509250925092565b6000806000806080858703121561256c57600080fd5b600061257a8782880161240f565b945050602061258b8782880161240f565b935050604061259c8782880161248d565b925050606085013567ffffffffffffffff8111156125b957600080fd5b6125c587828801612463565b91505092959194509250565b600080604083850312156125e457600080fd5b60006125f28582860161240f565b925050602061260385828601612424565b9150509250929050565b6000806040838503121561262057600080fd5b600061262e8582860161240f565b925050602061263f8582860161248d565b9150509250929050565b60006020828403121561265b57600080fd5b600061266984828501612439565b91505092915050565b60006020828403121561268457600080fd5b60006126928482850161244e565b91505092915050565b6000602082840312156126ad57600080fd5b60006126bb8482850161248d565b91505092915050565b6126cd81613250565b82525050565b6126dc81613262565b82525050565b60006126ed826130f8565b6126f7818561310e565b93506127078185602086016132d3565b6127108161349f565b840191505092915050565b600061272682613103565b612730818561311f565b93506127408185602086016132d3565b6127498161349f565b840191505092915050565b600061275f82613103565b6127698185613130565b93506127798185602086016132d3565b80840191505092915050565b6000815461279281613306565b61279c8186613130565b945060018216600081146127b757600181146127c8576127fb565b60ff198316865281860193506127fb565b6127d1856130e3565b60005b838110156127f3578154818901526001820191506020810190506127d4565b838801955050505b50505092915050565b6000612811602583613130565b915061281c826134b0565b602582019050919050565b600061283460328361311f565b915061283f826134ff565b604082019050919050565b6000612857601c8361311f565b91506128628261354e565b602082019050919050565b600061287a600a83613130565b915061288582613577565b600a82019050919050565b600061289d60248361311f565b91506128a8826135a0565b604082019050919050565b60006128c060198361311f565b91506128cb826135ef565b602082019050919050565b60006128e3606383613130565b91506128ee82613618565b606382019050919050565b6000612906600b83613130565b9150612911826136b3565b600b82019050919050565b6000612929602c8361311f565b9150612934826136dc565b604082019050919050565b600061294c600d83613130565b91506129578261372b565b600d82019050919050565b600061296f60388361311f565b915061297a82613754565b604082019050919050565b6000612992602a8361311f565b915061299d826137a3565b604082019050919050565b60006129b560298361311f565b91506129c0826137f2565b604082019050919050565b60006129d8602e8361311f565b91506129e382613841565b604082019050919050565b60006129fb600283613130565b9150612a0682613890565b600282019050919050565b6000612a1e60208361311f565b9150612a29826138b9565b602082019050919050565b6000612a4160318361311f565b9150612a4c826138e2565b604082019050919050565b6000612a64602c8361311f565b9150612a6f82613931565b604082019050919050565b6000612a8760298361311f565b9150612a9282613980565b604082019050919050565b6000612aaa602f8361311f565b9150612ab5826139cf565b604082019050919050565b6000612acd600a83613130565b9150612ad882613a1e565b600a82019050919050565b6000612af060218361311f565b9150612afb82613a47565b604082019050919050565b6000612b13600a83613130565b9150612b1e82613a96565b600a82019050919050565b6000612b36601d83613130565b9150612b4182613abf565b601d82019050919050565b6000612b5960318361311f565b9150612b6482613ae8565b604082019050919050565b6000612b7c600583613130565b9150612b8782613b37565b600582019050919050565b612b9b816132ba565b82525050565b6000612bad8284612754565b915081905092915050565b6000612bc48285612754565b9150612bd08284612754565b91508190509392505050565b6000612be88286612754565b9150612bf48285612754565b9150612c008284612754565b9150819050949350505050565b6000612c198287612785565b9150612c258286612754565b9150612c318285612785565b9150612c3d8284612754565b9150612c488261293f565b915081905095945050505050565b6000612c6182612804565b9150612c6d8284612754565b915081905092915050565b6000612c838261286d565b9150612c8f8284612754565b915081905092915050565b6000612ca5826128f9565b9150612cb18284612754565b915081905092915050565b6000612cc782612ac0565b9150612cd38285612754565b9150612cde826128d6565b9150612cea8284612754565b9150612cf5826129ee565b91508190509392505050565b6000612d0c82612b06565b9150612d188284612754565b915081905092915050565b6000612d2e82612b29565b9150612d3a8284612754565b915081905092915050565b6000612d5082612b6f565b9150612d5c8284612754565b915081905092915050565b6000602082019050612d7c60008301846126c4565b92915050565b6000608082019050612d9760008301876126c4565b612da460208301866126c4565b612db16040830185612b92565b8181036060830152612dc381846126e2565b905095945050505050565b6000604082019050612de360008301856126c4565b612df06020830184612b92565b9392505050565b6000602082019050612e0c60008301846126d3565b92915050565b60006020820190508181036000830152612e2c818461271b565b905092915050565b60006060820190508181036000830152612e4e818661271b565b9050612e5d6020830185612b92565b612e6a60408301846126c4565b949350505050565b60006020820190508181036000830152612e8b81612827565b9050919050565b60006020820190508181036000830152612eab8161284a565b9050919050565b60006020820190508181036000830152612ecb81612890565b9050919050565b60006020820190508181036000830152612eeb816128b3565b9050919050565b60006020820190508181036000830152612f0b8161291c565b9050919050565b60006020820190508181036000830152612f2b81612962565b9050919050565b60006020820190508181036000830152612f4b81612985565b9050919050565b60006020820190508181036000830152612f6b816129a8565b9050919050565b60006020820190508181036000830152612f8b816129cb565b9050919050565b60006020820190508181036000830152612fab81612a11565b9050919050565b60006020820190508181036000830152612fcb81612a34565b9050919050565b60006020820190508181036000830152612feb81612a57565b9050919050565b6000602082019050818103600083015261300b81612a7a565b9050919050565b6000602082019050818103600083015261302b81612a9d565b9050919050565b6000602082019050818103600083015261304b81612ae3565b9050919050565b6000602082019050818103600083015261306b81612b4c565b9050919050565b60006020820190506130876000830184612b92565b92915050565b60006130976130a8565b90506130a38282613338565b919050565b6000604051905090565b600067ffffffffffffffff8211156130cd576130cc613470565b5b6130d68261349f565b9050602081019050919050565b60008190508160005260206000209050919050565b600081519050919050565b600081519050919050565b600082825260208201905092915050565b600082825260208201905092915050565b600081905092915050565b6000613146826132ba565b9150613151836132ba565b9250827fffffffffffffffffffffffffffffffffffffffffffffffffffffffffffffffff03821115613186576131856133e3565b5b828201905092915050565b600061319c826132ba565b91506131a7836132ba565b9250826131b7576131b6613412565b5b828204905092915050565b60006131cd826132ba565b91506131d8836132ba565b9250817fffffffffffffffffffffffffffffffffffffffffffffffffffffffffffffffff0483118215151615613211576132106133e3565b5b828202905092915050565b6000613227826132ba565b9150613232836132ba565b925082821015613245576132446133e3565b5b828203905092915050565b600061325b8261329a565b9050919050565b60008115159050919050565b60007fffffffff0000000000000000000000000000000000000000000000000000000082169050919050565b600073ffffffffffffffffffffffffffffffffffffffff82169050919050565b6000819050919050565b82818337600083830152505050565b60005b838110156132f15780820151818401526020810190506132d6565b83811115613300576000848401525b50505050565b6000600282049050600182168061331e57607f821691505b6020821081141561333257613331613441565b5b50919050565b6133418261349f565b810181811067ffffffffffffffff821117156133605761335f613470565b5b80604052505050565b6000613374826132ba565b91507fffffffffffffffffffffffffffffffffffffffffffffffffffffffffffffffff8214156133a7576133a66133e3565b5b600182019050919050565b60006133bd826132ba565b91506133c8836132ba565b9250826133d8576133d7613412565b5b828206905092915050565b7f4e487b7100000000000000000000000000000000000000000000000000000000600052601160045260246000fd5b7f4e487b7100000000000000000000000000000000000000000000000000000000600052601260045260246000fd5b7f4e487b7100000000000000000000000000000000000000000000000000000000600052602260045260246000fd5b7f4e487b7100000000000000000000000000000000000000000000000000000000600052604160045260246000fd5b6000601f19601f8301169050919050565b7f68747470733a2f2f6e6674707265766965772e30786465762e636f6465732f3f60008201527f636f64653d000000000000000000000000000000000000000000000000000000602082015250565b7f4552433732313a207472616e7366657220746f206e6f6e20455243373231526560008201527f63656976657220696d706c656d656e7465720000000000000000000000000000602082015250565b7f4552433732313a20746f6b656e20616c7265616479206d696e74656400000000600082015250565b7f54484952445f574f524400000000000000000000000000000000000000000000600082015250565b7f4552433732313a207472616e7366657220746f20746865207a65726f2061646460008201527f7265737300000000000000000000000000000000000000000000000000000000602082015250565b7f4552433732313a20617070726f766520746f2063616c6c657200000000000000600082015250565b7f222c20226465736372697074696f6e223a20224120686967686c79206163636c60008201527f61696d656420636f6c6c656374696f6e206f6620737175617265732e222c202260208201527f696d616765223a2022646174613a696d6167652f7376672b786d6c3b6261736560408201527f36342c0000000000000000000000000000000000000000000000000000000000606082015250565b7f5345434f4e445f574f5244000000000000000000000000000000000000000000600082015250565b7f4552433732313a206f70657261746f7220717565727920666f72206e6f6e657860008201527f697374656e7420746f6b656e0000000000000000000000000000000000000000602082015250565b7f3c2f746578743e3c2f7376673e00000000000000000000000000000000000000600082015250565b7f4552433732313a20617070726f76652063616c6c6572206973206e6f74206f7760008201527f6e6572206e6f7220617070726f76656420666f7220616c6c0000000000000000602082015250565b7f4552433732313a2062616c616e636520717565727920666f7220746865207a6560008201527f726f206164647265737300000000000000000000000000000000000000000000602082015250565b7f4552433732313a206f776e657220717565727920666f72206e6f6e657869737460008201527f656e7420746f6b656e0000000000000000000000000000000000000000000000602082015250565b7f45524337323155524953746f726167653a2055524920736574206f66206e6f6e60008201527f6578697374656e7420746f6b656e000000000000000000000000000000000000602082015250565b7f227d000000000000000000000000000000000000000000000000000000000000600082015250565b7f4552433732313a206d696e7420746f20746865207a65726f2061646472657373600082015250565b7f45524337323155524953746f726167653a2055524920717565727920666f722060008201527f6e6f6e6578697374656e7420746f6b656e000000000000000000000000000000602082015250565b7f4552433732313a20617070726f76656420717565727920666f72206e6f6e657860008201527f697374656e7420746f6b656e0000000000000000000000000000000000000000602082015250565b7f4552433732313a207472616e73666572206f6620746f6b656e2074686174206960008201527f73206e6f74206f776e0000000000000000000000000000000000000000000000602082015250565b7f4552433732314d657461646174613a2055524920717565727920666f72206e6f60008201527f6e6578697374656e7420746f6b656e0000000000000000000000000000000000602082015250565b7f7b226e616d65223a202200000000000000000000000000000000000000000000600082015250565b7f4552433732313a20617070726f76616c20746f2063757272656e74206f776e6560008201527f7200000000000000000000000000000000000000000000000000000000000000602082015250565b7f46495253545f574f524400000000000000000000000000000000000000000000600082015250565b7f646174613a6170706c69636174696f6e2f6a736f6e3b6261736536342c000000600082015250565b7f4552433732313a207472616e736665722063616c6c6572206973206e6f74206f60008201527f776e6572206e6f7220617070726f766564000000000000000000000000000000602082015250565b7f434f4c4f52000000000000000000000000000000000000000000000000000000600082015250565b613b6981613250565b8114613b7457600080fd5b50565b613b8081613262565b8114613b8b57600080fd5b50565b613b978161326e565b8114613ba257600080fd5b50565b613bae816132ba565b8114613bb957600080fd5b5056fe416e204e465420772f20494420257320686173206265656e206d696e74656420746f2025734142434445464748494a4b4c4d4e4f505152535455565758595a6162636465666768696a6b6c6d6e6f707172737475767778797a303132333435363738392b2fa2646970667358221220b0f4eb1596a089df805fc90405e96454568104328d582f45f47207cec3884fd764736f6c634300080100333c73766720786d6c6e733d27687474703a2f2f7777772e77332e6f72672f323030302f73766727207072657365727665417370656374526174696f3d27784d696e594d696e206d656574272076696577426f783d273020302033353020333530273e3c7374796c653e2e62617365207b2066696c6c3a2077686974653b20666f6e742d66616d696c793a2073657269663b20666f6e742d73697a653a20323470783b207d3c2f7374796c653e3c726563742077696474683d273130302527206865696768743d2731303025272066696c6c3d27272f3e3c7465787420783d273530252720793d273530252720636c6173733d27626173652720646f6d696e616e742d626173656c696e653d276d6964646c652720746578742d616e63686f723d276d6964646c65273e",
  "linkReferences": {},
  "deployedLinkReferences": {}
}